{
  "contractName": "SmartContract",
  "abi": [
    {
      "anonymous": false,
      "inputs": [
        {
          "indexed": false,
          "internalType": "uint256",
          "name": "donorId",
          "type": "uint256"
        },
        {
          "indexed": false,
          "internalType": "uint256",
          "name": "recipientId",
          "type": "uint256"
        },
        {
          "indexed": false,
          "internalType": "uint256",
          "name": "compatibilityScore",
          "type": "uint256"
        },
        {
          "indexed": false,
          "internalType": "bool",
          "name": "isCompatible",
          "type": "bool"
        }
      ],
      "name": "CompatibilityStored",
      "type": "event"
    },
    {
      "anonymous": false,
      "inputs": [
        {
          "indexed": false,
          "internalType": "uint256",
          "name": "userId",
          "type": "uint256"
        },
        {
          "indexed": false,
          "internalType": "string",
          "name": "cid",
          "type": "string"
        },
        {
          "indexed": false,
          "internalType": "string",
          "name": "description",
          "type": "string"
        }
      ],
      "name": "FileMetadataStored",
      "type": "event"
    },
    {
      "anonymous": false,
      "inputs": [
        {
          "indexed": false,
          "internalType": "uint256",
          "name": "donorId",
          "type": "uint256"
        },
        {
          "indexed": false,
          "internalType": "uint256",
          "name": "recipientId",
          "type": "uint256"
        },
        {
          "indexed": false,
          "internalType": "string",
          "name": "organType",
          "type": "string"
        },
        {
          "indexed": false,
          "internalType": "uint256",
          "name": "timestamp",
          "type": "uint256"
        }
      ],
      "name": "TransactionRecorded",
      "type": "event"
    },
    {
      "inputs": [
        {
          "internalType": "uint256",
          "name": "",
          "type": "uint256"
        }
      ],
      "name": "compatibilities",
      "outputs": [
        {
          "internalType": "uint256",
          "name": "donorId",
          "type": "uint256"
        },
        {
          "internalType": "uint256",
          "name": "recipientId",
          "type": "uint256"
        },
        {
          "internalType": "uint256",
          "name": "compatibilityScore",
          "type": "uint256"
        },
        {
          "internalType": "bool",
          "name": "isCompatible",
          "type": "bool"
        }
      ],
      "stateMutability": "view",
      "type": "function",
      "constant": true
    },
    {
      "inputs": [
        {
          "internalType": "uint256",
          "name": "",
          "type": "uint256"
        },
        {
          "internalType": "uint256",
          "name": "",
          "type": "uint256"
        }
      ],
      "name": "files",
      "outputs": [
        {
          "internalType": "string",
          "name": "cid",
          "type": "string"
        },
        {
          "internalType": "string",
          "name": "description",
          "type": "string"
        }
      ],
      "stateMutability": "view",
      "type": "function",
      "constant": true
    },
    {
      "inputs": [
        {
          "internalType": "uint256",
          "name": "",
          "type": "uint256"
        },
        {
          "internalType": "uint256",
          "name": "",
          "type": "uint256"
        }
      ],
      "name": "transactions",
      "outputs": [
        {
          "internalType": "uint256",
          "name": "donorId",
          "type": "uint256"
        },
        {
          "internalType": "uint256",
          "name": "recipientId",
          "type": "uint256"
        },
        {
          "internalType": "string",
          "name": "organType",
          "type": "string"
        },
        {
          "internalType": "uint256",
          "name": "timestamp",
          "type": "uint256"
        }
      ],
      "stateMutability": "view",
      "type": "function",
      "constant": true
    },
    {
      "inputs": [
        {
          "internalType": "uint256",
          "name": "donorId",
          "type": "uint256"
        },
        {
          "internalType": "uint256",
          "name": "recipientId",
          "type": "uint256"
        },
        {
          "internalType": "uint256",
          "name": "compatibilityScore",
          "type": "uint256"
        },
        {
          "internalType": "bool",
          "name": "isCompatible",
          "type": "bool"
        }
      ],
      "name": "storeCompatibility",
      "outputs": [],
      "stateMutability": "nonpayable",
      "type": "function"
    },
    {
      "inputs": [
        {
          "internalType": "uint256",
          "name": "donorId",
          "type": "uint256"
        },
        {
          "internalType": "uint256",
          "name": "recipientId",
          "type": "uint256"
        },
        {
          "internalType": "string",
          "name": "organType",
          "type": "string"
        }
      ],
      "name": "recordTransaction",
      "outputs": [],
      "stateMutability": "nonpayable",
      "type": "function"
    },
    {
      "inputs": [
        {
          "internalType": "uint256",
          "name": "userId",
          "type": "uint256"
        },
        {
          "internalType": "string",
          "name": "cid",
          "type": "string"
        },
        {
          "internalType": "string",
          "name": "description",
          "type": "string"
        }
      ],
      "name": "storeFileMetadata",
      "outputs": [],
      "stateMutability": "nonpayable",
      "type": "function"
    },
    {
      "inputs": [
        {
          "internalType": "uint256",
          "name": "donorId",
          "type": "uint256"
        }
      ],
      "name": "getCompatibility",
      "outputs": [
        {
          "components": [
            {
              "internalType": "uint256",
              "name": "donorId",
              "type": "uint256"
            },
            {
              "internalType": "uint256",
              "name": "recipientId",
              "type": "uint256"
            },
            {
              "internalType": "uint256",
              "name": "compatibilityScore",
              "type": "uint256"
            },
            {
              "internalType": "bool",
              "name": "isCompatible",
              "type": "bool"
            }
          ],
          "internalType": "struct SmartContract.Compatibility",
          "name": "",
          "type": "tuple"
        }
      ],
      "stateMutability": "view",
      "type": "function",
      "constant": true
    },
    {
      "inputs": [
        {
          "internalType": "uint256",
          "name": "donorId",
          "type": "uint256"
        }
      ],
      "name": "getTransactionHistory",
      "outputs": [
        {
          "components": [
            {
              "internalType": "uint256",
              "name": "donorId",
              "type": "uint256"
            },
            {
              "internalType": "uint256",
              "name": "recipientId",
              "type": "uint256"
            },
            {
              "internalType": "string",
              "name": "organType",
              "type": "string"
            },
            {
              "internalType": "uint256",
              "name": "timestamp",
              "type": "uint256"
            }
          ],
          "internalType": "struct SmartContract.Transaction[]",
          "name": "",
          "type": "tuple[]"
        }
      ],
      "stateMutability": "view",
      "type": "function",
      "constant": true
    },
    {
      "inputs": [
        {
          "internalType": "uint256",
          "name": "userId",
          "type": "uint256"
        }
      ],
      "name": "getFileMetadata",
      "outputs": [
        {
          "components": [
            {
              "internalType": "string",
              "name": "cid",
              "type": "string"
            },
            {
              "internalType": "string",
              "name": "description",
              "type": "string"
            }
          ],
          "internalType": "struct SmartContract.File[]",
          "name": "",
          "type": "tuple[]"
        }
      ],
      "stateMutability": "view",
      "type": "function",
      "constant": true
    }
  ],
  "bytecode": "0x6080806040523461001657610ee7908161001d8239f35b50600080fdfe6040608081526004361015610015575b50600080fd5b600090813560e01c8063064021ed146101cb578063261c4202146101b35780634504ef741461019b5780634eaf9db6146101705780636ccb28e214610149578063bc8d1dac146100fb578063cfc1a2d3146100dd578063f692f5e7146100b65763f8c2d8db14610085575061000f565b346100b2576100ae91506100a161009b366103c1565b9061070c565b9290915192839283610743565b0390f35b5080fd5b50346100b2576100ae91506100d26100cd3661022d565b610d90565b905191829182610658565b50346100b2576100f86100ef36610630565b9291909161077f565b51f35b50346100b2576100ae91506101176101123661022d565b610d07565b905191829182919091606080608083019480518452602081015160208501526040810151604085015201511515910152565b50346100b2576100ae91506101656101603661022d565b610e20565b9051918291826105ad565b50346100b2576100ae915061018d610187366103c1565b906104f6565b919492935194859485610586565b50346100b2576100f86101ad3661037a565b91610b55565b50346100b2576100f86101c536610333565b9161095d565b50346100b2576100ae91506102096101e23661022d565b600052600060205260406000209081549160018101549160ff600360028401549301541690565b93519283526020830191909152604082015290151560608201529081906080820190565b602090600319011261000f5760043590565b50634e487b7160e01b600052604160045260246000fd5b6080810190811067ffffffffffffffff82111761027257604052565b61027a61023f565b604052565b6040810190811067ffffffffffffffff82111761027257604052565b90601f8019910116810190811067ffffffffffffffff82111761027257604052565b81601f8201121561032b5780359067ffffffffffffffff821161031e575b604051926102f3601f8401601f19166020018561029b565b8284526020838301011161031557816000926020809301838601378301015290565b50505050600080fd5b61032661023f565b6102db565b505050600080fd5b60606003198201126103735760043591602435916044359067ffffffffffffffff821161036957610366916004016102bd565b90565b5050505050600080fd5b5050600080fd5b6060600319820112610373576004359167ffffffffffffffff60243581811161036957836103aa916004016102bd565b9260443591821161036957610366916004016102bd565b604090600319011261000f576004359060243590565b50634e487b7160e01b600052603260045260246000fd5b805482101561040b575b60005260206000209060021b0190600090565b6104136103d7565b6103f8565b90600182811c9216801561044a575b602083101461043257565b5050634e487b7160e01b600052602260045260246000fd5b91607f1691610427565b906040519182600082549261046884610418565b9081845260019485811690816000146104d75750600114610494575b50506104929250038361029b565b565b9093915060005260209081600020936000915b8183106104bf57505061049293508201013880610484565b855488840185015294850194879450918301916104a7565b9550505050505060ff1916602083015261049282604081013880610484565b6000526001602052604060002090815481101561032b57610516916103ee565b5090815491600181015491600361052f60028401610454565b92015490565b91908251928382526000905b84821061056e575092806020939411610561575b601f01601f1916010190565b6000838284010152610555565b90602090818082850101519082860101520190610541565b9493926060926105a89287526020870152608060408701526080860190610535565b930152565b602080820190808352835180925260409283810182858560051b8401019601946000925b8584106105e2575050505050505090565b90919293949596858061061f600193603f198682030188528b51908361060f83518a84528a840190610535565b9201519084818403910152610535565b9901940194019295949391906105d1565b608090600319011261000f576004359060243590604435906064358015158114156103695790565b602080820190808352835180925260409283810182858560051b8401019601946000925b85841061068d575050505050505090565b909192939495968580600192603f198582030187528a51908151815282820151838201526106c7878301516080808a850152830190610535565b9160608091015191015299019401940192959493919061067c565b80548210156106ff575b60005260206000209060011b0190600090565b6107076103d7565b6106ec565b6000526002602052604060002090815481101561032b5761072c916106e2565b5090610366600161073c84610454565b9301610454565b909161075a61036693604084526040840190610535565b916020818403910152610535565b50634e487b7160e01b600052600060045260246000fd5b90917f9c49e17798846168d0d0316b5670a2100096c269d9768dc408c5af9b017346bc93610827916040516107b381610256565b848152600360208201918783526040810184815260608201938615158552886000526000602052604060002092518355516001830155516002820155019051151560ff8019835416911617905560405194859485926060929594919560808501968552602085015260408401521515910152565b0390a1565b90601f811161083a57505050565b600091825260208220906020601f850160051c83019410610876575b601f0160051c01915b82811061086b57505050565b81815560010161085f565b9092508290610856565b919091825167ffffffffffffffff8111610950575b6108a9816108a38454610418565b8461082c565b602080601f83116001146108e55750819293946000926108da575b50508160011b916000199060031b1c1916179055565b0151905038806108c4565b90601f198316956108fb85600052602060002090565b926000905b8882106109385750508360019596971061091f575b505050811b019055565b015160001960f88460031b161c19169055388080610915565b80600185968294968601518155019501930190610900565b61095861023f565b610895565b9291908360005260016020908082526040600020906040519261097f84610256565b8784528084019185835260408501928784526109b66060870195428752805490600160401b821015610b1d575b84820181556103ee565b969096610b10575b51865551818601556002850192519182519267ffffffffffffffff8411610b03575b6109f4846109ee8754610418565b8761082c565b81601f8511600114610a6857509280807f268d9aef58e041132c5baa4fe6f6c996e361d5516700ec40fb69100fc654068f9b9c9794610827999794600397600094610a5d575b50501b9160001990861b1c19161790555b51910155604051938493429285610586565b015192503880610a3a565b9190601f949394198416610a8187600052602060002090565b936000905b828210610aec575050926003959285927f268d9aef58e041132c5baa4fe6f6c996e361d5516700ec40fb69100fc654068f9d9e99966108279b999610610ad4575b505050811b019055610a4b565b015160001983881b60f8161c19169055388080610ac7565b808886978294978701518155019601940190610a86565b610b0b61023f565b6109e0565b610b18610768565b6109be565b610b2561023f565b6109ac565b91610b479061036694928452606060208501526060840190610535565b916040818403910152610535565b92919280600052602060028152604060002060405191610b748361027f565b84835280830190878252610b9d8354600160401b811015610cfa575b60019485820181556106e2565b949094610ced575b519081519167ffffffffffffffff8311610ce0575b610bce83610bc88854610418565b8861082c565b81601f8411600114610c465750928261082796937fee499aa531df1d9d7a827ce3dddb07de774b45d2ba59b2db2bfb48807a0dd1e59a9b9693610c2f96600092610c3b575b5050600019600383901b1c191690831b1783555b519101610880565b60405193849384610b2a565b015190503880610c13565b9190601f198416610c5c88600052602060002090565b936000905b828210610cc9575050938693610c2f96937fee499aa531df1d9d7a827ce3dddb07de774b45d2ba59b2db2bfb48807a0dd1e59c9d9893836108279b9810610cb0575b505050811b018355610c27565b015160001960f88460031b161c19169055388080610ca3565b808986978294978701518155019601940190610c61565b610ce861023f565b610bba565b610cf5610768565b610ba5565b610d0261023f565b610b90565b60606040918251610d1781610256565b6000928184809352826020820152828682015201528152806020522060ff600360405192610d4484610256565b8054845260018101546020850152600281015460408501520154161515606082015290565b60209067ffffffffffffffff8111610d83575b60051b0190565b610d8b61023f565b610d7c565b600052600160209080825260409182600020805491610dae83610d69565b94610dbb8151968761029b565b8386526000928352818320908287015b858510610ddc575050505050505090565b60048488928451610dec81610256565b865481528487015483820152610e0460028801610454565b8682015260038701546060820152815201930194019391610dcb565b6000526002602081815260409182600020805492610e3d84610d69565b94610e4a8151968761029b565b8486526000928352818320908287015b868510610e6b575050505050505090565b85846001928451610e7b8161027f565b610e8487610454565b8152610e91858801610454565b83820152815201930194019391610e5a56fea3646970667358221220bd99e59abbf63e96313ea5ed8f42c55f5bf6b78b73ba6bb746d7b856c13168896c6578706572696d656e74616cf564736f6c634300080a0041",
  "immutableReferences": {},
  "source": "// SPDX-License-Identifier: MIT\r\npragma solidity ^0.8.0;\r\n\r\ncontract SmartContract {\r\n    // Struct to store compatibility results\r\n    struct Compatibility {\r\n        uint256 donorId;\r\n        uint256 recipientId;\r\n        uint256 compatibilityScore;\r\n        bool isCompatible;\r\n    }\r\n\r\n    // Struct to store transaction details\r\n    struct Transaction {\r\n        uint256 donorId;\r\n        uint256 recipientId;\r\n        string organType;\r\n        uint256 timestamp;\r\n    }\r\n\r\n    // Struct to store file metadata\r\n    struct File {\r\n        string cid; // IPFS CID\r\n        string description; // File description (e.g., \"Medical Record\")\r\n    }\r\n\r\n    // Mappings to store data\r\n    mapping(uint256 => Compatibility) public compatibilities;\r\n    mapping(uint256 => Transaction[]) public transactions;\r\n    mapping(uint256 => File[]) public files;\r\n\r\n    // Events to log important actions\r\n    event CompatibilityStored(uint256 donorId, uint256 recipientId, uint256 compatibilityScore, bool isCompatible);\r\n    event TransactionRecorded(uint256 donorId, uint256 recipientId, string organType, uint256 timestamp);\r\n    event FileMetadataStored(uint256 userId, string cid, string description);\r\n\r\n    // Function to store compatibility results\r\n    function storeCompatibility(uint256 donorId, uint256 recipientId, uint256 compatibilityScore, bool isCompatible) public {\r\n        compatibilities[donorId] = Compatibility(donorId, recipientId, compatibilityScore, isCompatible);\r\n        emit CompatibilityStored(donorId, recipientId, compatibilityScore, isCompatible);\r\n    }\r\n\r\n    // Function to record a transaction\r\n    function recordTransaction(uint256 donorId, uint256 recipientId, string memory organType) public {\r\n        transactions[donorId].push(Transaction(donorId, recipientId, organType, block.timestamp));\r\n        emit TransactionRecorded(donorId, recipientId, organType, block.timestamp);\r\n    }\r\n\r\n    // Function to store file metadata\r\n    function storeFileMetadata(uint256 userId, string memory cid, string memory description) public {\r\n        files[userId].push(File(cid, description));\r\n        emit FileMetadataStored(userId, cid, description);\r\n    }\r\n\r\n    // Function to get compatibility results\r\n    function getCompatibility(uint256 donorId) public view returns (Compatibility memory) {\r\n        return compatibilities[donorId];\r\n    }\r\n\r\n    // Function to get transaction history\r\n    function getTransactionHistory(uint256 donorId) public view returns (Transaction[] memory) {\r\n        return transactions[donorId];\r\n    }\r\n\r\n    // Function to get file metadata\r\n    function getFileMetadata(uint256 userId) public view returns (File[] memory) {\r\n        return files[userId];\r\n    }\r\n}\r\n",
  "sourcePath": "C:\\Users\\Divya Kudale\\OrganTrackerProjectt\\contracts\\SmartContract.sol",
  "compiler": {
    "name": "solc",
    "version": "0.8.10+commit.fc410830.Emscripten.clang"
  },
  "schemaVersion": "3.4.16",
  "updatedAt": "2025-03-06T06:18:36.833Z",
  "networkType": "ethereum",
  "devdoc": {
    "kind": "dev",
    "methods": {},
    "version": 1
  },
  "userdoc": {
    "kind": "user",
    "methods": {},
    "version": 1
  }
}